{
  "contractName": "Tournament",
  "abi": [
    {
      "inputs": [
        {
          "internalType": "uint256",
          "name": "",
          "type": "uint256"
        }
      ],
      "name": "matches",
      "outputs": [
        {
          "internalType": "string",
          "name": "tournament_id",
          "type": "string"
        },
        {
          "internalType": "string",
          "name": "player_id_1",
          "type": "string"
        },
        {
          "internalType": "string",
          "name": "player_id_2",
          "type": "string"
        },
        {
          "internalType": "string",
          "name": "player_id_3",
          "type": "string"
        },
        {
          "internalType": "string",
          "name": "player_id_4",
          "type": "string"
        },
        {
          "internalType": "string",
          "name": "score_match_1_2",
          "type": "string"
        },
        {
          "internalType": "string",
          "name": "score_match_3_4",
          "type": "string"
        },
        {
          "internalType": "string",
          "name": "final_player_1",
          "type": "string"
        },
        {
          "internalType": "string",
          "name": "final_player_2",
          "type": "string"
        },
        {
          "internalType": "string",
          "name": "final_score",
          "type": "string"
        },
        {
          "internalType": "string",
          "name": "winner",
          "type": "string"
        }
      ],
      "stateMutability": "view",
      "type": "function",
      "constant": true
    },
    {
      "inputs": [
        {
          "internalType": "string",
          "name": "tournament_id",
          "type": "string"
        },
        {
          "internalType": "string",
          "name": "player_id_1",
          "type": "string"
        },
        {
          "internalType": "string",
          "name": "player_id_2",
          "type": "string"
        },
        {
          "internalType": "string",
          "name": "player_id_3",
          "type": "string"
        },
        {
          "internalType": "string",
          "name": "player_id_4",
          "type": "string"
        },
        {
          "internalType": "string",
          "name": "score_match_1_2",
          "type": "string"
        },
        {
          "internalType": "string",
          "name": "score_match_3_4",
          "type": "string"
        },
        {
          "internalType": "string",
          "name": "final_player_1",
          "type": "string"
        },
        {
          "internalType": "string",
          "name": "final_player_2",
          "type": "string"
        },
        {
          "internalType": "string",
          "name": "final_score",
          "type": "string"
        },
        {
          "internalType": "string",
          "name": "winner",
          "type": "string"
        }
      ],
      "name": "saveMatch",
      "outputs": [],
      "stateMutability": "nonpayable",
      "type": "function"
    },
    {
      "inputs": [],
      "name": "getMatches",
      "outputs": [
        {
          "components": [
            {
              "internalType": "string",
              "name": "tournament_id",
              "type": "string"
            },
            {
              "internalType": "string",
              "name": "player_id_1",
              "type": "string"
            },
            {
              "internalType": "string",
              "name": "player_id_2",
              "type": "string"
            },
            {
              "internalType": "string",
              "name": "player_id_3",
              "type": "string"
            },
            {
              "internalType": "string",
              "name": "player_id_4",
              "type": "string"
            },
            {
              "internalType": "string",
              "name": "score_match_1_2",
              "type": "string"
            },
            {
              "internalType": "string",
              "name": "score_match_3_4",
              "type": "string"
            },
            {
              "internalType": "string",
              "name": "final_player_1",
              "type": "string"
            },
            {
              "internalType": "string",
              "name": "final_player_2",
              "type": "string"
            },
            {
              "internalType": "string",
              "name": "final_score",
              "type": "string"
            },
            {
              "internalType": "string",
              "name": "winner",
              "type": "string"
            }
          ],
          "internalType": "struct Tournament.Match[]",
          "name": "",
          "type": "tuple[]"
        }
      ],
      "stateMutability": "view",
      "type": "function",
      "constant": true
    }
  ],
  "bytecode": "0x608060405234801561001057600080fd5b506119f0806100206000396000f3fe608060405234801561001057600080fd5b50600436106100415760003560e01c80632c70120e146100465780634768d4ef14610064578063d94996111461009e575b600080fd5b61004e6100ba565b60405161005b91906111a4565b60405180910390f35b61007e60048036038101906100799190611210565b610760565b6040516100959b9a99989796959493929190611287565b60405180910390f35b6100b860048036038101906100b391906114b4565b610da2565b005b60606000805480602002602001604051908101604052809291908181526020016000905b8282101561075757838290600052602060002090600b0201604051806101600160405290816000820180546101129061170b565b80601f016020809104026020016040519081016040528092919081815260200182805461013e9061170b565b801561018b5780601f106101605761010080835404028352916020019161018b565b820191906000526020600020905b81548152906001019060200180831161016e57829003601f168201915b505050505081526020016001820180546101a49061170b565b80601f01602080910402602001604051908101604052809291908181526020018280546101d09061170b565b801561021d5780601f106101f25761010080835404028352916020019161021d565b820191906000526020600020905b81548152906001019060200180831161020057829003601f168201915b505050505081526020016002820180546102369061170b565b80601f01602080910402602001604051908101604052809291908181526020018280546102629061170b565b80156102af5780601f10610284576101008083540402835291602001916102af565b820191906000526020600020905b81548152906001019060200180831161029257829003601f168201915b505050505081526020016003820180546102c89061170b565b80601f01602080910402602001604051908101604052809291908181526020018280546102f49061170b565b80156103415780601f1061031657610100808354040283529160200191610341565b820191906000526020600020905b81548152906001019060200180831161032457829003601f168201915b5050505050815260200160048201805461035a9061170b565b80601f01602080910402602001604051908101604052809291908181526020018280546103869061170b565b80156103d35780601f106103a8576101008083540402835291602001916103d3565b820191906000526020600020905b8154815290600101906020018083116103b657829003601f168201915b505050505081526020016005820180546103ec9061170b565b80601f01602080910402602001604051908101604052809291908181526020018280546104189061170b565b80156104655780601f1061043a57610100808354040283529160200191610465565b820191906000526020600020905b81548152906001019060200180831161044857829003601f168201915b5050505050815260200160068201805461047e9061170b565b80601f01602080910402602001604051908101604052809291908181526020018280546104aa9061170b565b80156104f75780601f106104cc576101008083540402835291602001916104f7565b820191906000526020600020905b8154815290600101906020018083116104da57829003601f168201915b505050505081526020016007820180546105109061170b565b80601f016020809104026020016040519081016040528092919081815260200182805461053c9061170b565b80156105895780601f1061055e57610100808354040283529160200191610589565b820191906000526020600020905b81548152906001019060200180831161056c57829003601f168201915b505050505081526020016008820180546105a29061170b565b80601f01602080910402602001604051908101604052809291908181526020018280546105ce9061170b565b801561061b5780601f106105f05761010080835404028352916020019161061b565b820191906000526020600020905b8154815290600101906020018083116105fe57829003601f168201915b505050505081526020016009820180546106349061170b565b80601f01602080910402602001604051908101604052809291908181526020018280546106609061170b565b80156106ad5780601f10610682576101008083540402835291602001916106ad565b820191906000526020600020905b81548152906001019060200180831161069057829003601f168201915b50505050508152602001600a820180546106c69061170b565b80601f01602080910402602001604051908101604052809291908181526020018280546106f29061170b565b801561073f5780601f106107145761010080835404028352916020019161073f565b820191906000526020600020905b81548152906001019060200180831161072257829003601f168201915b505050505081525050815260200190600101906100de565b50505050905090565b6000818154811061077057600080fd5b90600052602060002090600b02016000915090508060000180546107939061170b565b80601f01602080910402602001604051908101604052809291908181526020018280546107bf9061170b565b801561080c5780601f106107e15761010080835404028352916020019161080c565b820191906000526020600020905b8154815290600101906020018083116107ef57829003601f168201915b5050505050908060010180546108219061170b565b80601f016020809104026020016040519081016040528092919081815260200182805461084d9061170b565b801561089a5780601f1061086f5761010080835404028352916020019161089a565b820191906000526020600020905b81548152906001019060200180831161087d57829003601f168201915b5050505050908060020180546108af9061170b565b80601f01602080910402602001604051908101604052809291908181526020018280546108db9061170b565b80156109285780601f106108fd57610100808354040283529160200191610928565b820191906000526020600020905b81548152906001019060200180831161090b57829003601f168201915b50505050509080600301805461093d9061170b565b80601f01602080910402602001604051908101604052809291908181526020018280546109699061170b565b80156109b65780601f1061098b576101008083540402835291602001916109b6565b820191906000526020600020905b81548152906001019060200180831161099957829003601f168201915b5050505050908060040180546109cb9061170b565b80601f01602080910402602001604051908101604052809291908181526020018280546109f79061170b565b8015610a445780601f10610a1957610100808354040283529160200191610a44565b820191906000526020600020905b815481529060010190602001808311610a2757829003601f168201915b505050505090806005018054610a599061170b565b80601f0160208091040260200160405190810160405280929190818152602001828054610a859061170b565b8015610ad25780601f10610aa757610100808354040283529160200191610ad2565b820191906000526020600020905b815481529060010190602001808311610ab557829003601f168201915b505050505090806006018054610ae79061170b565b80601f0160208091040260200160405190810160405280929190818152602001828054610b139061170b565b8015610b605780601f10610b3557610100808354040283529160200191610b60565b820191906000526020600020905b815481529060010190602001808311610b4357829003601f168201915b505050505090806007018054610b759061170b565b80601f0160208091040260200160405190810160405280929190818152602001828054610ba19061170b565b8015610bee5780601f10610bc357610100808354040283529160200191610bee565b820191906000526020600020905b815481529060010190602001808311610bd157829003601f168201915b505050505090806008018054610c039061170b565b80601f0160208091040260200160405190810160405280929190818152602001828054610c2f9061170b565b8015610c7c5780601f10610c5157610100808354040283529160200191610c7c565b820191906000526020600020905b815481529060010190602001808311610c5f57829003601f168201915b505050505090806009018054610c919061170b565b80601f0160208091040260200160405190810160405280929190818152602001828054610cbd9061170b565b8015610d0a5780601f10610cdf57610100808354040283529160200191610d0a565b820191906000526020600020905b815481529060010190602001808311610ced57829003601f168201915b50505050509080600a018054610d1f9061170b565b80601f0160208091040260200160405190810160405280929190818152602001828054610d4b9061170b565b8015610d985780601f10610d6d57610100808354040283529160200191610d98565b820191906000526020600020905b815481529060010190602001808311610d7b57829003601f168201915b505050505090508b565b60006040518061016001604052808d81526020018c81526020018b81526020018a81526020018981526020018881526020018781526020018681526020018581526020018481526020018381525090806001815401808255809150506001900390600052602060002090600b02016000909190919091506000820151816000019081610e2e91906118e8565b506020820151816001019081610e4491906118e8565b506040820151816002019081610e5a91906118e8565b506060820151816003019081610e7091906118e8565b506080820151816004019081610e8691906118e8565b5060a0820151816005019081610e9c91906118e8565b5060c0820151816006019081610eb291906118e8565b5060e0820151816007019081610ec891906118e8565b50610100820151816008019081610edf91906118e8565b50610120820151816009019081610ef691906118e8565b5061014082015181600a019081610f0d91906118e8565b5050505050505050505050505050565b600081519050919050565b600082825260208201905092915050565b6000819050602082019050919050565b600081519050919050565b600082825260208201905092915050565b60005b83811015610f83578082015181840152602081019050610f68565b60008484015250505050565b6000601f19601f8301169050919050565b6000610fab82610f49565b610fb58185610f54565b9350610fc5818560208601610f65565b610fce81610f8f565b840191505092915050565b6000610160830160008301518482036000860152610ff78282610fa0565b915050602083015184820360208601526110118282610fa0565b9150506040830151848203604086015261102b8282610fa0565b915050606083015184820360608601526110458282610fa0565b9150506080830151848203608086015261105f8282610fa0565b91505060a083015184820360a08601526110798282610fa0565b91505060c083015184820360c08601526110938282610fa0565b91505060e083015184820360e08601526110ad8282610fa0565b9150506101008301518482036101008601526110c98282610fa0565b9150506101208301518482036101208601526110e58282610fa0565b9150506101408301518482036101408601526111018282610fa0565b9150508091505092915050565b600061111a8383610fd9565b905092915050565b6000602082019050919050565b600061113a82610f1d565b6111448185610f28565b93508360208202850161115685610f39565b8060005b858110156111925784840389528151611173858261110e565b945061117e83611122565b925060208a0199505060018101905061115a565b50829750879550505050505092915050565b600060208201905081810360008301526111be818461112f565b905092915050565b6000604051905090565b600080fd5b600080fd5b6000819050919050565b6111ed816111da565b81146111f857600080fd5b50565b60008135905061120a816111e4565b92915050565b600060208284031215611226576112256111d0565b5b6000611234848285016111fb565b91505092915050565b600082825260208201905092915050565b600061125982610f49565b611263818561123d565b9350611273818560208601610f65565b61127c81610f8f565b840191505092915050565b60006101608201905081810360008301526112a2818e61124e565b905081810360208301526112b6818d61124e565b905081810360408301526112ca818c61124e565b905081810360608301526112de818b61124e565b905081810360808301526112f2818a61124e565b905081810360a0830152611306818961124e565b905081810360c083015261131a818861124e565b905081810360e083015261132e818761124e565b9050818103610100830152611343818661124e565b9050818103610120830152611358818561124e565b905081810361014083015261136d818461124e565b90509c9b505050505050505050505050565b600080fd5b600080fd5b7f4e487b7100000000000000000000000000000000000000000000000000000000600052604160045260246000fd5b6113c182610f8f565b810181811067ffffffffffffffff821117156113e0576113df611389565b5b80604052505050565b60006113f36111c6565b90506113ff82826113b8565b919050565b600067ffffffffffffffff82111561141f5761141e611389565b5b61142882610f8f565b9050602081019050919050565b82818337600083830152505050565b600061145761145284611404565b6113e9565b90508281526020810184848401111561147357611472611384565b5b61147e848285611435565b509392505050565b600082601f83011261149b5761149a61137f565b5b81356114ab848260208601611444565b91505092915050565b60008060008060008060008060008060006101608c8e0312156114da576114d96111d0565b5b60008c013567ffffffffffffffff8111156114f8576114f76111d5565b5b6115048e828f01611486565b9b505060208c013567ffffffffffffffff811115611525576115246111d5565b5b6115318e828f01611486565b9a505060408c013567ffffffffffffffff811115611552576115516111d5565b5b61155e8e828f01611486565b99505060608c013567ffffffffffffffff81111561157f5761157e6111d5565b5b61158b8e828f01611486565b98505060808c013567ffffffffffffffff8111156115ac576115ab6111d5565b5b6115b88e828f01611486565b97505060a08c013567ffffffffffffffff8111156115d9576115d86111d5565b5b6115e58e828f01611486565b96505060c08c013567ffffffffffffffff811115611606576116056111d5565b5b6116128e828f01611486565b95505060e08c013567ffffffffffffffff811115611633576116326111d5565b5b61163f8e828f01611486565b9450506101008c013567ffffffffffffffff811115611661576116606111d5565b5b61166d8e828f01611486565b9350506101208c013567ffffffffffffffff81111561168f5761168e6111d5565b5b61169b8e828f01611486565b9250506101408c013567ffffffffffffffff8111156116bd576116bc6111d5565b5b6116c98e828f01611486565b9150509295989b509295989b9093969950565b7f4e487b7100000000000000000000000000000000000000000000000000000000600052602260045260246000fd5b6000600282049050600182168061172357607f821691505b602082108103611736576117356116dc565b5b50919050565b60008190508160005260206000209050919050565b60006020601f8301049050919050565b600082821b905092915050565b60006008830261179e7fffffffffffffffffffffffffffffffffffffffffffffffffffffffffffffffff82611761565b6117a88683611761565b95508019841693508086168417925050509392505050565b6000819050919050565b60006117e56117e06117db846111da565b6117c0565b6111da565b9050919050565b6000819050919050565b6117ff836117ca565b61181361180b826117ec565b84845461176e565b825550505050565b600090565b61182861181b565b6118338184846117f6565b505050565b5b818110156118575761184c600082611820565b600181019050611839565b5050565b601f82111561189c5761186d8161173c565b61187684611751565b81016020851015611885578190505b61189961189185611751565b830182611838565b50505b505050565b600082821c905092915050565b60006118bf600019846008026118a1565b1980831691505092915050565b60006118d883836118ae565b9150826002028217905092915050565b6118f182610f49565b67ffffffffffffffff81111561190a57611909611389565b5b611914825461170b565b61191f82828561185b565b600060209050601f8311600181146119525760008415611940578287015190505b61194a85826118cc565b8655506119b2565b601f1984166119608661173c565b60005b8281101561198857848901518255600182019150602085019450602081019050611963565b868310156119a557848901516119a1601f8916826118ae565b8355505b6001600288020188555050505b50505050505056fea2646970667358221220d30a75bd58da02ad75c538022b3c20b38bc0a875f43b28af8794c4266c9ab73364736f6c63430008130033",
  "immutableReferences": {},
  "source": "// SPDX-License-Identifier: MIT\npragma solidity 0.8.19;\n\ncontract Tournament {\n    struct Match {\n        string tournament_id;\n        string player_id_1;\n        string player_id_2;\n        string player_id_3;\n        string player_id_4;\n        string score_match_1_2;\n        string score_match_3_4;\n        string final_player_1;\n        string final_player_2;\n        string final_score;\n        string winner;\n    }\n\n    Match[] public matches;\n\n    function saveMatch(\n        string memory tournament_id,\n        string memory player_id_1,\n        string memory player_id_2,\n        string memory player_id_3,\n        string memory player_id_4,\n        string memory score_match_1_2,\n        string memory score_match_3_4,\n        string memory final_player_1,\n        string memory final_player_2,\n        string memory final_score,\n        string memory winner\n    ) public {\n        matches.push(Match(\n            tournament_id,\n            player_id_1,\n            player_id_2,\n            player_id_3,\n            player_id_4,\n            score_match_1_2,\n            score_match_3_4,\n            final_player_1,\n            final_player_2,\n            final_score,\n            winner\n        ));\n    }\n\n    function getMatches() public view returns (Match[] memory) {\n        return matches;\n    }\n}\n",
  "sourcePath": "/workspaces/fpf_transcendence/blockchain/build/contracts/Tournament.sol",
  "compiler": {
    "name": "solc",
    "version": "0.8.19+commit.7dd6d404.Emscripten.clang"
  },
  "schemaVersion": "3.4.16",
  "updatedAt": "2024-09-03T18:44:19.290Z",
  "networkType": "ethereum",
  "devdoc": {
    "kind": "dev",
    "methods": {},
    "version": 1
  },
  "userdoc": {
    "kind": "user",
    "methods": {},
    "version": 1
  }
}